{
  "_format": "hh-sol-artifact-1",
  "contractName": "MessageStorage",
  "sourceName": "contracts/MessagingStorage.sol",
  "abi": [
    {
      "anonymous": false,
      "inputs": [
        {
          "indexed": true,
          "internalType": "address",
          "name": "sender",
          "type": "address"
        },
        {
          "indexed": false,
          "internalType": "string",
          "name": "content",
          "type": "string"
        },
        {
          "indexed": false,
          "internalType": "uint256",
          "name": "timestamp",
          "type": "uint256"
        }
      ],
      "name": "MessageSent",
      "type": "event"
    },
    {
      "inputs": [],
      "name": "getAllMessages",
      "outputs": [
        {
          "components": [
            {
              "internalType": "address",
              "name": "sender",
              "type": "address"
            },
            {
              "internalType": "string",
              "name": "content",
              "type": "string"
            },
            {
              "internalType": "uint256",
              "name": "timestamp",
              "type": "uint256"
            }
          ],
          "internalType": "struct MessageStorage.Message[]",
          "name": "",
          "type": "tuple[]"
        }
      ],
      "stateMutability": "view",
      "type": "function"
    },
    {
      "inputs": [],
      "name": "getMessageCount",
      "outputs": [
        {
          "internalType": "uint256",
          "name": "",
          "type": "uint256"
        }
      ],
      "stateMutability": "view",
      "type": "function"
    },
    {
      "inputs": [
        {
          "internalType": "address",
          "name": "_user",
          "type": "address"
        }
      ],
      "name": "getUserMessages",
      "outputs": [
        {
          "components": [
            {
              "internalType": "address",
              "name": "sender",
              "type": "address"
            },
            {
              "internalType": "string",
              "name": "content",
              "type": "string"
            },
            {
              "internalType": "uint256",
              "name": "timestamp",
              "type": "uint256"
            }
          ],
          "internalType": "struct MessageStorage.Message[]",
          "name": "",
          "type": "tuple[]"
        }
      ],
      "stateMutability": "view",
      "type": "function"
    },
    {
      "inputs": [
        {
          "internalType": "uint256",
          "name": "",
          "type": "uint256"
        }
      ],
      "name": "messages",
      "outputs": [
        {
          "internalType": "address",
          "name": "sender",
          "type": "address"
        },
        {
          "internalType": "string",
          "name": "content",
          "type": "string"
        },
        {
          "internalType": "uint256",
          "name": "timestamp",
          "type": "uint256"
        }
      ],
      "stateMutability": "view",
      "type": "function"
    },
    {
      "inputs": [
        {
          "internalType": "string",
          "name": "_content",
          "type": "string"
        }
      ],
      "name": "sendMessage",
      "outputs": [],
      "stateMutability": "nonpayable",
      "type": "function"
    },
    {
      "inputs": [
        {
          "internalType": "address",
          "name": "",
          "type": "address"
        },
        {
          "internalType": "uint256",
          "name": "",
          "type": "uint256"
        }
      ],
      "name": "userMessages",
      "outputs": [
        {
          "internalType": "address",
          "name": "sender",
          "type": "address"
        },
        {
          "internalType": "string",
          "name": "content",
          "type": "string"
        },
        {
          "internalType": "uint256",
          "name": "timestamp",
          "type": "uint256"
        }
      ],
      "stateMutability": "view",
      "type": "function"
    }
  ],
  "bytecode": "0x608060405234801561001057600080fd5b506110a8806100206000396000f3fe608060405234801561001057600080fd5b50600436106100625760003560e01c80630d80fefd146100675780633193391614610099578063469c8110146100b757806353f5e380146100d35780639428cda3146100f157806398d63d3d14610123575b600080fd5b610081600480360381019061007c919061084b565b610153565b60405161009093929190610958565b60405180910390f35b6100a1610235565b6040516100ae9190610996565b60405180910390f35b6100d160048036038101906100cc9190610ae6565b610241565b005b6100db610431565b6040516100e89190610ca9565b60405180910390f35b61010b60048036038101906101069190610cf7565b610582565b60405161011a93929190610958565b60405180910390f35b61013d60048036038101906101389190610d37565b610671565b60405161014a9190610ca9565b60405180910390f35b6000818154811061016357600080fd5b90600052602060002090600302016000915090508060000160009054906101000a900473ffffffffffffffffffffffffffffffffffffffff16908060010180546101ac90610d93565b80601f01602080910402602001604051908101604052809291908181526020018280546101d890610d93565b80156102255780601f106101fa57610100808354040283529160200191610225565b820191906000526020600020905b81548152906001019060200180831161020857829003601f168201915b5050505050908060020154905083565b60008080549050905090565b600060405180606001604052803373ffffffffffffffffffffffffffffffffffffffff168152602001838152602001428152509050600081908060018154018082558091505060019003906000526020600020906003020160009091909190915060008201518160000160006101000a81548173ffffffffffffffffffffffffffffffffffffffff021916908373ffffffffffffffffffffffffffffffffffffffff16021790555060208201518160010190816102fe9190610f70565b50604082015181600201555050600160003373ffffffffffffffffffffffffffffffffffffffff1673ffffffffffffffffffffffffffffffffffffffff16815260200190815260200160002081908060018154018082558091505060019003906000526020600020906003020160009091909190915060008201518160000160006101000a81548173ffffffffffffffffffffffffffffffffffffffff021916908373ffffffffffffffffffffffffffffffffffffffff16021790555060208201518160010190816103d09190610f70565b506040820151816002015550503373ffffffffffffffffffffffffffffffffffffffff167f4816bdd3b9d39acdd4da0ae7412d5523081e916c6a56e481063e475b86ef7c5b8342604051610425929190611042565b60405180910390a25050565b60606000805480602002602001604051908101604052809291908181526020016000905b8282101561057957838290600052602060002090600302016040518060600160405290816000820160009054906101000a900473ffffffffffffffffffffffffffffffffffffffff1673ffffffffffffffffffffffffffffffffffffffff1673ffffffffffffffffffffffffffffffffffffffff1681526020016001820180546104de90610d93565b80601f016020809104026020016040519081016040528092919081815260200182805461050a90610d93565b80156105575780601f1061052c57610100808354040283529160200191610557565b820191906000526020600020905b81548152906001019060200180831161053a57829003601f168201915b5050505050815260200160028201548152505081526020019060010190610455565b50505050905090565b6001602052816000526040600020818154811061059e57600080fd5b9060005260206000209060030201600091509150508060000160009054906101000a900473ffffffffffffffffffffffffffffffffffffffff16908060010180546105e890610d93565b80601f016020809104026020016040519081016040528092919081815260200182805461061490610d93565b80156106615780601f1061063657610100808354040283529160200191610661565b820191906000526020600020905b81548152906001019060200180831161064457829003601f168201915b5050505050908060020154905083565b6060600160008373ffffffffffffffffffffffffffffffffffffffff1673ffffffffffffffffffffffffffffffffffffffff168152602001908152602001600020805480602002602001604051908101604052809291908181526020016000905b828210156107f657838290600052602060002090600302016040518060600160405290816000820160009054906101000a900473ffffffffffffffffffffffffffffffffffffffff1673ffffffffffffffffffffffffffffffffffffffff1673ffffffffffffffffffffffffffffffffffffffff16815260200160018201805461075b90610d93565b80601f016020809104026020016040519081016040528092919081815260200182805461078790610d93565b80156107d45780601f106107a9576101008083540402835291602001916107d4565b820191906000526020600020905b8154815290600101906020018083116107b757829003601f168201915b50505050508152602001600282015481525050815260200190600101906106d2565b505050509050919050565b6000604051905090565b600080fd5b600080fd5b6000819050919050565b61082881610815565b811461083357600080fd5b50565b6000813590506108458161081f565b92915050565b6000602082840312156108615761086061080b565b5b600061086f84828501610836565b91505092915050565b600073ffffffffffffffffffffffffffffffffffffffff82169050919050565b60006108a382610878565b9050919050565b6108b381610898565b82525050565b600081519050919050565b600082825260208201905092915050565b60005b838110156108f35780820151818401526020810190506108d8565b60008484015250505050565b6000601f19601f8301169050919050565b600061091b826108b9565b61092581856108c4565b93506109358185602086016108d5565b61093e816108ff565b840191505092915050565b61095281610815565b82525050565b600060608201905061096d60008301866108aa565b818103602083015261097f8185610910565b905061098e6040830184610949565b949350505050565b60006020820190506109ab6000830184610949565b92915050565b600080fd5b600080fd5b7f4e487b7100000000000000000000000000000000000000000000000000000000600052604160045260246000fd5b6109f3826108ff565b810181811067ffffffffffffffff82111715610a1257610a116109bb565b5b80604052505050565b6000610a25610801565b9050610a3182826109ea565b919050565b600067ffffffffffffffff821115610a5157610a506109bb565b5b610a5a826108ff565b9050602081019050919050565b82818337600083830152505050565b6000610a89610a8484610a36565b610a1b565b905082815260208101848484011115610aa557610aa46109b6565b5b610ab0848285610a67565b509392505050565b600082601f830112610acd57610acc6109b1565b5b8135610add848260208601610a76565b91505092915050565b600060208284031215610afc57610afb61080b565b5b600082013567ffffffffffffffff811115610b1a57610b19610810565b5b610b2684828501610ab8565b91505092915050565b600081519050919050565b600082825260208201905092915050565b6000819050602082019050919050565b610b6481610898565b82525050565b600082825260208201905092915050565b6000610b86826108b9565b610b908185610b6a565b9350610ba08185602086016108d5565b610ba9816108ff565b840191505092915050565b610bbd81610815565b82525050565b6000606083016000830151610bdb6000860182610b5b565b5060208301518482036020860152610bf38282610b7b565b9150506040830151610c086040860182610bb4565b508091505092915050565b6000610c1f8383610bc3565b905092915050565b6000602082019050919050565b6000610c3f82610b2f565b610c498185610b3a565b935083602082028501610c5b85610b4b565b8060005b85811015610c975784840389528151610c788582610c13565b9450610c8383610c27565b925060208a01995050600181019050610c5f565b50829750879550505050505092915050565b60006020820190508181036000830152610cc38184610c34565b905092915050565b610cd481610898565b8114610cdf57600080fd5b50565b600081359050610cf181610ccb565b92915050565b60008060408385031215610d0e57610d0d61080b565b5b6000610d1c85828601610ce2565b9250506020610d2d85828601610836565b9150509250929050565b600060208284031215610d4d57610d4c61080b565b5b6000610d5b84828501610ce2565b91505092915050565b7f4e487b7100000000000000000000000000000000000000000000000000000000600052602260045260246000fd5b60006002820490506001821680610dab57607f821691505b602082108103610dbe57610dbd610d64565b5b50919050565b60008190508160005260206000209050919050565b60006020601f8301049050919050565b600082821b905092915050565b600060088302610e267fffffffffffffffffffffffffffffffffffffffffffffffffffffffffffffffff82610de9565b610e308683610de9565b95508019841693508086168417925050509392505050565b6000819050919050565b6000610e6d610e68610e6384610815565b610e48565b610815565b9050919050565b6000819050919050565b610e8783610e52565b610e9b610e9382610e74565b848454610df6565b825550505050565b600090565b610eb0610ea3565b610ebb818484610e7e565b505050565b5b81811015610edf57610ed4600082610ea8565b600181019050610ec1565b5050565b601f821115610f2457610ef581610dc4565b610efe84610dd9565b81016020851015610f0d578190505b610f21610f1985610dd9565b830182610ec0565b50505b505050565b600082821c905092915050565b6000610f4760001984600802610f29565b1980831691505092915050565b6000610f608383610f36565b9150826002028217905092915050565b610f79826108b9565b67ffffffffffffffff811115610f9257610f916109bb565b5b610f9c8254610d93565b610fa7828285610ee3565b600060209050601f831160018114610fda5760008415610fc8578287015190505b610fd28582610f54565b86555061103a565b601f198416610fe886610dc4565b60005b8281101561101057848901518255600182019150602085019450602081019050610feb565b8683101561102d5784890151611029601f891682610f36565b8355505b6001600288020188555050505b505050505050565b6000604082019050818103600083015261105c8185610910565b905061106b6020830184610949565b939250505056fea264697066735822122094af16a2d7431e59c78f4b92772b619650469a23e7723b2ae15952b322fa6b7264736f6c63430008130033",
  "linkReferences": {},
  "deployedLinkReferences": {}
}